{
  "contractName": "DeTube",
  "abi": [
    {
      "anonymous": false,
      "inputs": [
        {
          "indexed": false,
          "internalType": "uint256",
          "name": "id",
          "type": "uint256"
        },
        {
          "indexed": false,
          "internalType": "string",
          "name": "hash",
          "type": "string"
        },
        {
          "indexed": false,
          "internalType": "string",
          "name": "title",
          "type": "string"
        },
        {
          "indexed": false,
          "internalType": "address",
          "name": "author",
          "type": "address"
        }
      ],
      "name": "VideoUpload",
      "type": "event"
    },
    {
      "inputs": [],
      "name": "videoCount",
      "outputs": [
        {
          "internalType": "uint256",
          "name": "",
          "type": "uint256"
        }
      ],
      "stateMutability": "view",
      "type": "function"
    },
    {
      "inputs": [
        {
          "internalType": "uint256",
          "name": "",
          "type": "uint256"
        }
      ],
      "name": "videos",
      "outputs": [
        {
          "internalType": "uint256",
          "name": "id",
          "type": "uint256"
        },
        {
          "internalType": "string",
          "name": "hash",
          "type": "string"
        },
        {
          "internalType": "string",
          "name": "title",
          "type": "string"
        },
        {
          "internalType": "address",
          "name": "author",
          "type": "address"
        }
      ],
      "stateMutability": "view",
      "type": "function"
    },
    {
      "inputs": [
        {
          "internalType": "string",
          "name": "_videoHash",
          "type": "string"
        },
        {
          "internalType": "string",
          "name": "_title",
          "type": "string"
        }
      ],
      "name": "uploadVideo",
      "outputs": [],
      "stateMutability": "nonpayable",
      "type": "function"
    }
  ],
  "bytecode": "0x60806040526000805534801561001457600080fd5b506108d1806100246000396000f3fe608060405234801561001057600080fd5b50600436106100415760003560e01c80638a5447c514610046578063c61b5f4c14610062578063e6821bf514610080575b600080fd5b610060600480360381019061005b91906105a1565b6100b3565b005b61006a61023e565b6040516100779190610632565b60405180910390f35b61009a60048036038101906100959190610679565b610244565b6040516100aa949392919061076f565b60405180910390f35b60008251116100c157600080fd5b60008151116100cf57600080fd5b600073ffffffffffffffffffffffffffffffffffffffff163373ffffffffffffffffffffffffffffffffffffffff16141561010957600080fd5b60008081548092919061011b906107f1565b9190505550604051806080016040528060005481526020018381526020018281526020013373ffffffffffffffffffffffffffffffffffffffff1681525060016000805481526020019081526020016000206000820151816000015560208201518160010190805190602001906101939291906103a4565b5060408201518160020190805190602001906101b09291906103a4565b5060608201518160030160006101000a81548173ffffffffffffffffffffffffffffffffffffffff021916908373ffffffffffffffffffffffffffffffffffffffff1602179055509050507f2ee1eaccb920fd3acedcaa1650fcea6f00fa51e2253a8279a1d65ca4d0547ec6600054838333604051610232949392919061076f565b60405180910390a15050565b60005481565b600160205280600052604060002060009150905080600001549080600101805461026d90610869565b80601f016020809104026020016040519081016040528092919081815260200182805461029990610869565b80156102e65780601f106102bb576101008083540402835291602001916102e6565b820191906000526020600020905b8154815290600101906020018083116102c957829003601f168201915b5050505050908060020180546102fb90610869565b80601f016020809104026020016040519081016040528092919081815260200182805461032790610869565b80156103745780601f1061034957610100808354040283529160200191610374565b820191906000526020600020905b81548152906001019060200180831161035757829003601f168201915b5050505050908060030160009054906101000a900473ffffffffffffffffffffffffffffffffffffffff16905084565b8280546103b090610869565b90600052602060002090601f0160209004810192826103d25760008555610419565b82601f106103eb57805160ff1916838001178555610419565b82800160010185558215610419579182015b828111156104185782518255916020019190600101906103fd565b5b509050610426919061042a565b5090565b5b8082111561044357600081600090555060010161042b565b5090565b6000604051905090565b600080fd5b600080fd5b600080fd5b600080fd5b6000601f19601f8301169050919050565b7f4e487b7100000000000000000000000000000000000000000000000000000000600052604160045260246000fd5b6104ae82610465565b810181811067ffffffffffffffff821117156104cd576104cc610476565b5b80604052505050565b60006104e0610447565b90506104ec82826104a5565b919050565b600067ffffffffffffffff82111561050c5761050b610476565b5b61051582610465565b9050602081019050919050565b82818337600083830152505050565b600061054461053f846104f1565b6104d6565b9050828152602081018484840111156105605761055f610460565b5b61056b848285610522565b509392505050565b600082601f8301126105885761058761045b565b5b8135610598848260208601610531565b91505092915050565b600080604083850312156105b8576105b7610451565b5b600083013567ffffffffffffffff8111156105d6576105d5610456565b5b6105e285828601610573565b925050602083013567ffffffffffffffff81111561060357610602610456565b5b61060f85828601610573565b9150509250929050565b6000819050919050565b61062c81610619565b82525050565b60006020820190506106476000830184610623565b92915050565b61065681610619565b811461066157600080fd5b50565b6000813590506106738161064d565b92915050565b60006020828403121561068f5761068e610451565b5b600061069d84828501610664565b91505092915050565b600081519050919050565b600082825260208201905092915050565b60005b838110156106e05780820151818401526020810190506106c5565b838111156106ef576000848401525b50505050565b6000610700826106a6565b61070a81856106b1565b935061071a8185602086016106c2565b61072381610465565b840191505092915050565b600073ffffffffffffffffffffffffffffffffffffffff82169050919050565b60006107598261072e565b9050919050565b6107698161074e565b82525050565b60006080820190506107846000830187610623565b818103602083015261079681866106f5565b905081810360408301526107aa81856106f5565b90506107b96060830184610760565b95945050505050565b7f4e487b7100000000000000000000000000000000000000000000000000000000600052601160045260246000fd5b60006107fc82610619565b91507fffffffffffffffffffffffffffffffffffffffffffffffffffffffffffffffff82141561082f5761082e6107c2565b5b600182019050919050565b7f4e487b7100000000000000000000000000000000000000000000000000000000600052602260045260246000fd5b6000600282049050600182168061088157607f821691505b602082108114156108955761089461083a565b5b5091905056fea26469706673582212204dca1d309f468d7ebf932f3ebb2a562422d4f2f1de87a8c8ca2614b41979d4be64736f6c634300080b0033",
  "immutableReferences": {},
  "source": "// SPDX-License-Identifier: MIT\r\npragma solidity >=0.4.22 <0.9.0;\r\n\r\ncontract DeTube {\r\n    //Model the video\r\n    struct Video {\r\n        uint256 id;\r\n        string hash;\r\n        string title;\r\n        address author;\r\n    }\r\n\r\n    event VideoUpload(uint256 id, string hash, string title, address author);\r\n\r\n    uint256 public videoCount = 0;\r\n    mapping(uint256 => Video) public videos;\r\n\r\n    function uploadVideo(string memory _videoHash, string memory _title)\r\n        public\r\n    {\r\n        require(bytes(_videoHash).length > 0);\r\n        require(bytes(_title).length > 0);\r\n        require(msg.sender != address(0));\r\n\r\n        videoCount++;\r\n        videos[videoCount] = Video(videoCount, _videoHash, _title, msg.sender);\r\n        emit VideoUpload(videoCount, _videoHash, _title, msg.sender);\r\n    }\r\n}\r\n",
  "sourcePath": "E:\\WebDev Projects\\Blockchain Projects\\Project 2 - Youtube Clone\\contracts\\contracts\\DeTube.sol",
  "compiler": {
    "name": "solc",
    "version": "0.8.11+commit.d7f03943.Emscripten.clang"
  },
  "schemaVersion": "3.4.4",
  "updatedAt": "2022-07-15T11:02:01.117Z",
  "devdoc": {
    "kind": "dev",
    "methods": {},
    "version": 1
  },
  "userdoc": {
    "kind": "user",
    "methods": {},
    "version": 1
  }
}